:100000000C942A000C9447000C9447000C94470071
:100010000C9447000C9447000C9447000C94470044
:100020000C9447000C9447000C9447000C943B023E
:100030000C9447000C9447000C9447000C94470024
:100040000C9447000C9447000C9447000C949102C8
:100050000C94470011241FBECFE5D4E0DEBFCDBF16
:1000600010E0A0E6B0E0E0E0F0E102C005900D9203
:10007000AE3BB107D9F720E0AEEBB0E001C01D9276
:10008000A93EB207E1F70E94FD020C94FE070C9412
:10009000000085E0E8ECF0E0DF011D928A95E9F7C9
:1000A0001092C3001092C4001092C5001092C600B6
:1000B0001092C700A7988EE787B987E886B9089598
:1000C0008F929F92AF92BF92CF92DF92EF92FF9268
:1000D000CF93DF93C8ECD0E069817A818B819C81DA
:1000E0000E9402046B017C0189809A80AB80BC80F5
:1000F000072E000C880B990B0E943A049B01AC015F
:10010000C501B4010E94230320E030E048EC52E432
:100110000E94C6040E9402047F936F93DF92CF92E5
:100120008091C6008F938091C5008F938091C40009
:100130008F938091C3008F938EE990E09F938F936C
:100140000E9433058FE59AEE0197F1F700C0000099
:100150008DB79EB70A960FB6F8949EBF0FBE8DBF9F
:10016000DF91CF91FF90EF90DF90CF90BF90AF9055
:100170009F908F90089583B365B170E080E090E028
:100180000E943A049B01AC0166EF78E28CE993E4AB
:100190000E9490036093C9007093CA008093CB00C3
:1001A0009093CC00369A089508950895089508957F
:1001B000089508958091BE008F5F8093BE008530C2
:1001C00008F4089580E00E942C021092BE00089569
:1001D0002091E3003091E40028173907C1F4909191
:1001E000D1008091D000981791F0E091D00081E08B
:1001F0008E0F8093D000F0E0E353FF4F8681909103
:10020000D000903110F01092D00090E008958EEF61
:100210009FEF08952091E5003091E60026173707FB
:1002200039F45D9BFECF8CB9082E000C990B089514
:100230008EEF9FEF089586E1EDECF0E0DF011D9277
:100240008A95E9F7BFE32EE785E0B1502040804072
:10025000E1F700C0000085E98CBF8AE083BF82E03F
:1002600089BF88BF8CE089B910BC1BB886E880BD07
:1002700088E98AB98FE08BBB18BA9FEF9ABB84B329
:100280008F7384BB97BBE3EEF0E08EE690E0938340
:10029000828380E690E091838083089508958F3F64
:1002A00011F08F5F08958FEF08958F3F2FEF920722
:1002B00011F0019608958FEF9FEF08958091CD0082
:1002C00087FF0895789408958FB7EDECF0E0908162
:1002D0008078892B8083F89408958BEB90E09F932E
:1002E0008F930E9433050F900F9008959091D10045
:1002F0008091D000981738F48091D1009091D0006F
:10030000805F891B08958091D1009091D000891B56
:100310000895CF93C82F9FB72091CD009078922B4E
:100320009093CD00F8940E947601C817A0F49091A4
:10033000D000EC2FE90FE03160F4F0E0E353FF4F21
:10034000868190E02091CD0027FF01C07894CF9165
:100350000895E051F2CF8FEF9FEFF4CF8FB79091D8
:10036000CD008078892B8093CD00F8945F9B05C0E9
:100370008CB18093D2005F99FBCF1092D000109285
:10038000D1001092D2008091CD0087FF089578941B
:1003900008952FB73091CD002078232B2093CD00E6
:1003A000F8942091CF00282331E009F430E09091B7
:1003B000CF00982B9093CF008091CD0087FF01C094
:1003C0007894832F0895982F8FB72091CD0080784F
:1003D000822B8093CD00F8942091CF00292381E0D7
:1003E00009F480E02091CF00909592239093CF0064
:1003F0009091CD0097FF0895789408959091CF0043
:10040000982381E009F480E00895811104C08FE011
:100410008BBB18BA089580EF8BBB8FEF88BB089514
:10042000843070F44BB321E030E061110AC0B901AF
:1004300002C0660F771F8A95E2F7CB01842B8BBB36
:100440000895B90102C0660F771F8A95E2F7CB01C4
:10045000809584238BBB0895843060F44BB321E0F6
:1004600030E0B90102C0660F771F8A95E2F7CB0131
:1004700084278BBB08951F920F920FB60F92112401
:100480008F939F93EF93FF938CB1823539F18093D3
:10049000C200E091D10091E09E0F9093D100F0E076
:1004A000E353FF4F86838091D100803110F010928A
:1004B000D1009091D1008091D0009817E9F0E0919F
:1004C000D100F0E0E353FF4F1682FF91EF919F912F
:1004D0008F910F900FBE0F901F9018959091C200B2
:1004E0009034A9F698E088E10FB6F894A89581BDFC
:1004F0000FBE91BDA895FFCF8091D10081110BC097
:100500008FE08093D1008091D2008F3F09F08F5F00
:100510008093D200D4CF8091D10081508093D100BC
:10052000F2CF1F920F920FB60F9211242F933F9389
:100530004F935F936F937F938F939F93AF93BF93EB
:10054000EF93FF938091C1008F5F8530E0F11092AF
:10055000C1008091C0008F5F8093C0008091BF0078
:100560008823C1F08091CE008F3F09F08F5F809388
:10057000CE00FF91EF91BF91AF919F918F917F91AD
:100580006F915F914F913F912F910F900FBE0F9000
:100590001F90189581E08093BF0078948091C000EF
:1005A00080FD19C081FD12C082FD1BC083FD1CC0EF
:1005B00084FD1DC085FD12C086FD1CC087FF08C0DC
:1005C0000E94DA0005C08093C100D3CF0E94D400FE
:1005D0001092BF00CECF0E94BB00FACF0E94D8007D
:1005E000F7CF0E94D500F4CF0E94D600F1CF0E9431
:1005F000D700EECF0E94D900EBCF0E941B010E94D2
:1006000049008CE790E09F938F9385E890E09F935B
:100610008F9381E990E09F938F9383EB90E09F937A
:100620008F930E9433050E946D0178948DB79EB719
:1006300008960FB6F8949EBF0FBE8DBF0E944E0164
:100640000E946000FBCF5058BB27AA270E943B03A3
:100650000C948C040E947E0438F00E94850420F0E3
:1006600039F49F3F19F426F40C947B040EF4E095C2
:10067000E7FB0C947504E92F0E949D0458F3BA1708
:10068000620773078407950720F079F4A6F50C94A8
:10069000BF040EF4E0950B2EBA2FA02D0B01B9016B
:1006A00090010C01CA01A0011124FF27591B99F0E8
:1006B000593F50F4503E68F11A16F040A22F232FF4
:1006C000342F4427585FF3CF469537952795A79544
:1006D000F0405395C9F77EF41F16BA0B620B730BEB
:1006E000840BBAF09150A1F0FF0FBB1F661F771F5C
:1006F000881FC2F70EC0BA0F621F731F841F48F411
:10070000879577956795B795F7959E3F08F0B0CF99
:100710009395880F08F09927EE0F97958795089580
:100720000E94A4030C948C040E94850458F00E943B
:100730007E0440F029F45F3F29F00C9475045111B8
:100740000C94C0040C947B040E949D0468F39923CC
:10075000B1F3552391F3951B550BBB27AA276217BD
:100760007307840738F09F5F5F4F220F331F441FCA
:10077000AA1FA9F335D00E2E3AF0E0E832D09150FE
:100780005040E695001CCAF72BD0FE2F29D0660FEB
:10079000771F881FBB1F261737074807AB07B0E82E
:1007A00009F0BB0B802DBF01FF2793585F4F3AF034
:1007B0009E3F510578F00C9475040C94C0045F3F83
:1007C000E4F3983ED4F3869577956795B795F795BA
:1007D0009F5FC9F7880F911D9695879597F90895A2
:1007E000E1E0660F771F881FBB1F6217730784073E
:1007F000BA0720F0621B730B840BBA0BEE1F88F74D
:10080000E09508950E9409046894B1110C94C00405
:1008100008950E94A50488F09F5798F0B92F992752
:10082000B751B0F0E1F0660F771F881F991F1AF0DB
:10083000BA95C9F714C0B13091F00E94BF04B1E07D
:1008400008950C94BF04672F782F8827B85F39F07C
:10085000B93FCCF3869577956795B395D9F73EF474
:1008600090958095709561957F4F8F4F9F4F08951C
:10087000E89409C097FB3EF490958095709561953A
:100880007F4F8F4F9F4F9923A9F0F92F96E9BB27F0
:100890009395F695879577956795B795F111F8CF6C
:1008A000FAF4BB0F11F460FF1BC06F5F7F4F8F4FD7
:1008B0009F4F16C0882311F096E911C0772321F0CD
:1008C0009EE8872F762F05C0662371F096E8862F65
:1008D00070E060E02AF09A95660F771F881FDAF7BC
:1008E000880F9695879597F9089597F99F6780E8FF
:1008F00070E060E008959FEF80EC089500240A9472
:100900001616170618060906089500240A941216EA
:100910001306140605060895092E0394000C11F41D
:10092000882352F0BB0F40F4BF2B11F460FF04C0CA
:100930006F5F7F4F8F4F9F4F089557FD9058440F23
:10094000551F59F05F3F71F04795880F97FB991F2E
:1009500061F09F3F79F087950895121613061406EB
:10096000551FF2CF4695F1DF08C016161706180678
:10097000991FF1CF86957105610508940895E89453
:10098000BB2766277727CB0197F908950E94D904E2
:100990000C948C040E947E0438F00E94850420F0A0
:1009A000952311F00C9475040C947B0411240C9481
:1009B000C0040E949D0470F3959FC1F3950F50E011
:1009C000551F629FF001729FBB27F00DB11D639F01
:1009D000AA27F00DB11DAA1F649F6627B00DA11DA7
:1009E000661F829F2227B00DA11D621F739FB00D4D
:1009F000A11D621F839FA00D611D221F749F3327BD
:100A0000A00D611D231F849F600D211D822F762F55
:100A10006A2F11249F5750409AF0F1F088234AF032
:100A2000EE0FFF1FBB1F661F771F881F915050409E
:100A3000A9F79E3F510580F00C9475040C94C004F6
:100A40005F3FE4F3983ED4F3869577956795B79525
:100A5000F795E7959F5FC1F7FE2B880F911D96953F
:100A6000879597F90895A0E0B0E0E9E3F5E00C94EC
:100A7000D707AE014B5F5F4FFA0161917191AF01F2
:100A80008091E5009091E6000E944905E2E00C9417
:100A9000F307ACE0B0E0EFE4F5E00C94C7077C01AD
:100AA0006B018A01FC0117821682838181FFBDC11F
:100AB000CE0101964C01F7019381F60193FD8591DA
:100AC00093FF81916F01882309F4ABC1853239F41A
:100AD00093FD859193FF81916F01853229F4B701D0
:100AE00090E00E943107E7CF512C312C20E02032DA
:100AF000A0F48B3269F030F4803259F0833269F41B
:100B000020612CC08D3239F0803339F4216026C049
:100B10002260246023C0286021C027FD27C030ED5B
:100B2000380F3A3078F426FF06C0FAE05F9E300DA9
:100B30001124532E13C08AE0389E300D1124332E19
:100B400020620CC08E3221F426FD6BC1206406C0E9
:100B50008C3611F4206802C0883641F4F60193FD0A
:100B6000859193FF81916F018111C1CF982F9F7D56
:100B70009554933028F40C5F1F4FFFE3F9830DC0A9
:100B8000833631F0833771F0833509F05BC022C0C2
:100B9000F801808189830E5F1F4F44244394512CB8
:100BA000540115C03801F2E06F0E711CF801A080ED
:100BB000B18026FF03C0652D70E002C06FEF7FEFAC
:100BC000C5012C870E9426072C0183012C852F77D5
:100BD000222E17C03801F2E06F0E711CF801A080C0
:100BE000B18026FF03C0652D70E002C06FEF7FEF7C
:100BF000C5012C870E941B072C012C852068222E02
:100C0000830123FC1BC0832D90E048165906B0F4E5
:100C1000B70180E290E00E9431073A94F4CFF501E9
:100C200027FC859127FE81915F01B70190E00E942A
:100C3000310731103A94F1E04F1A51084114510430
:100C400071F7E5C0843611F0893639F5F80127FFD0
:100C500007C060817181828193810C5F1F4F08C042
:100C600060817181072E000C880B990B0E5F1F4F5E
:100C70002F76722E97FF09C090958095709561959B
:100C80007F4F8F4F9F4F2068722E2AE030E0A401E3
:100C90000E946907A82EA81844C0853729F42F7E22
:100CA000B22E2AE030E025C0F22FF97FBF2E8F361A
:100CB000C1F018F4883579F0B4C0803719F088375E
:100CC00021F0AFC02F2F2061B22EB4FE0DC08B2DAE
:100CD0008460B82E09C024FF0AC09F2F9660B92EE9
:100CE00006C028E030E005C020E130E002C020E18D
:100CF00032E0F801B7FE07C0608171818281938183
:100D00000C5F1F4F06C06081718180E090E00E5F34
:100D10001F4FA4010E946907A82EA818FB2DFF777A
:100D20007F2E76FE0BC0372D3E7FA51450F474FE47
:100D30000AC072FC08C0372D3E7E05C0BA2C372D84
:100D400003C0BA2C01C0B52C34FF0DC0FE01EA0D62
:100D5000F11D8081803311F4397E09C032FF06C055
:100D6000B394B39404C0832F867809F0B39433FD11
:100D700013C030FF06C05A2CB31418F4530C5B1880
:100D8000B32CB31468F4B70180E290E03C870E9472
:100D90003107B3943C85F5CFB31410F43B1801C070
:100DA000312C34FF12C0B70180E390E03C870E94F1
:100DB00031073C8532FF17C031FD03C088E790E062
:100DC00002C088E590E0B7010CC0832F867859F007
:100DD00031FF02C08BE201C080E237FD8DE2B70136
:100DE00090E00E943107A51438F4B70180E390E049
:100DF0000E9431075A94F7CFAA94F401EA0DF11D2D
:100E00008081B70190E00E943107A110F5CF332017
:100E100009F451CEB70180E290E00E9431073A9484
:100E2000F6CFF7018681978102C08FEF9FEF2C9656
:100E3000E2E10C94E307FC01059061507040011061
:100E4000D8F7809590958E0F9F1F0895FC016150F3
:100E5000704001900110D8F7809590958E0F9F1FDC
:100E600008950F931F93CF93DF93FB01238121FDFF
:100E700003C08FEF9FEF28C022FF16C04681578125
:100E8000248135814217530744F4A081B1819D012B
:100E90002F5F3F4F318320838C93268137812F5FD3
:100EA0003F4F3783268310C0EB01092F182F008492
:100EB000F185E02D0995892BE1F68E819F810196C0
:100EC0009F838E83812F902FDF91CF911F910F9160
:100ED0000895FA01AA27283051F1203181F1E894D0
:100EE0006F936E7F6E5F7F4F8F4F9F4FAF4FB1E01D
:100EF0003ED0B4E03CD0670F781F891F9A1FA11D18
:100F0000680F791F8A1F911DA11D6A0F711D811D18
:100F1000911DA11D20D009F468943F912AE0269FDD
:100F200011243019305D3193DEF6CF010895462F3C
:100F30004770405D4193B3E00FD0C9F7F6CF462F1D
:100F40004F70405D4A3318F0495D31FD4052419386
:100F500002D0A9F7EACFB4E0A69597958795779543
:100F60006795BA95C9F700976105710508959B01CA
:100F7000AC010A2E06945795479537952795BA9553
:100F8000C9F7620F731F841F951FA01D08952F922C
:100F90003F924F925F926F927F928F929F92AF9209
:100FA000BF92CF92DF92EF92FF920F931F93CF9356
:100FB000DF93CDB7DEB7CA1BDB0B0FB6F894DEBFED
:100FC0000FBECDBF09942A88398848885F846E8413
:100FD0007D848C849B84AA84B984C884DF80EE805D
:100FE000FD800C811B81AA81B981CE0FD11D0FB666
:100FF000F894DEBF0FBECDBFED010895F894FFCF8A
:1010000000000001000000000000E80000000000F7
:101010000002000000000A010000000030393A33ED
:10102000353A343700417072203132203230313855
:10103000000A0D50726F6772616D203F3F00256C92
:101040007520766363203D2025642E25303264565A
:0E105000200D0025732025732025730A0D0046
:00000001FF
