:100000000C942A000C9447000C9447000C94470071
:100010000C9447000C9447000C9447000C94470044
:100020000C9447000C9447000C9447000C943F023A
:100030000C9447000C9447000C9447000C94470024
:100040000C9447000C9447000C9447000C949502C4
:100050000C94470011241FBECFE5D4E0DEBFCDBF16
:1000600010E0A0E6B0E0E8E0F0E102C005900D92FB
:10007000A03DB107D9F720E0A0EDB0E001C01D928E
:10008000AF3FB207E1F70E9401030C9402080C9401
:10009000000085E0EEEDF0E0DF011D928A95E9F7C2
:1000A0001092DA001092DB001092DC001092DD005A
:1000B000A7988EE787B986E886B90895CF92DF9230
:1000C000EF92FF921F93CF93DF93CEEDD0E0688144
:1000D00079818A819B810E940D04162FC880D98066
:1000E000EA80FB80CC8170E080E090E00E943C04DC
:1000F0009B01AC01C701B6010E94270320E030E05C
:1001000048EC52E40E94CA040E9406047F936F9355
:100110001F921F931F92CF938091DD008F93809148
:10012000DC008F938091DB008F938091DA008F93B6
:100130008EE990E09F938F930E9437052FE58AEE1A
:1001400090E0215080409040E1F700C000008DB762
:100150009EB70C960FB6F8949EBF0FBE8DBFDF9171
:10016000CF911F91FF90EF90DF90CF90089583B3D0
:100170001092D2001092D3001092D4001092D500A9
:1001800065B170E080E090E00E943E049B01AC010C
:1001900066EF78E28CE993E40E9494036093DE00BA
:1001A0007093DF008093E0009093E100369A089509
:1001B0000895089508950895089508958091D100AF
:1001C0008F5F8093D100853008F4089580E00E940D
:1001D00030021092D10008952091F9003091FA0078
:1001E00028173907C1F49091E7008091E60098172D
:1001F00091F0E091E60081E08E0F8093E600F0E060
:10020000ED51FF4F86819091E600903110F01092F1
:10021000E60090E008958EEF9FEF08952091FB0097
:100220003091FC002617370739F45D9BFECF8CB95F
:10023000082E000C990B08958EEF9FEF089586E12C
:10024000E3EEF0E0DF011D928A95E9F7BFE32EE7C8
:1002500085E0B15020408040E1F700C0000085E912
:100260008CBF8AE083BF82E089BF88BF8CE089B9F8
:1002700010BC1BB886E880BD88E98AB98FE08BBBCB
:1002800018BA9FEF9ABB84B38F7384BB97BBE9EF17
:10029000F0E08EE690E09383828380E690E09183A5
:1002A0008083089508958F3F11F08F5F08958FEF39
:1002B00008958F3F2FEF920711F0019608958FEF69
:1002C0009FEF08958091E30087FF08957894089543
:1002D0008FB7E3EEF0E090818078892B8083F894EB
:1002E00008958CEC90E09F938F930E9437050F90B8
:1002F0000F9008959091E7008091E600981738F4E8
:100300008091E7009091E600805F891B08958091BD
:10031000E7009091E600891B0895CF93C82F9FB7FF
:100320002091E3009078922B9093E300F8940E9440
:100330007A01C817A0F49091E600EC2FE90FE031A4
:1003400060F4F0E0ED51FF4F868190E02091E300F2
:1003500027FF01C07894CF910895E051F2CF8FEF3D
:100360009FEFF4CF8FB79091E3008078892B809333
:10037000E300F8945F9B05C08CB18093E8005F991F
:10038000FBCF1092E6001092E7001092E8008091F7
:10039000E30087FF0895789408952FB73091E30024
:1003A0002078232B2093E300F8942091E500282364
:1003B00031E009F430E09091E500982B9093E5004E
:1003C0008091E30087FF01C07894832F0895982FD0
:1003D0008FB72091E3008078822B8093E300F8941C
:1003E0002091E500292381E009F480E02091E500D7
:1003F000909592239093E5009091E30097FF0895E4
:10040000789408959091E500982381E009F480E0C4
:100410000895811104C08FE08BBB18BA089580EF56
:100420008BBB8FEF88BB0895843070F44BB321E011
:1004300030E061110AC0B90102C0660F771F8A95CA
:10044000E2F7CB01842B8BBB0895B90102C0660F84
:10045000771F8A95E2F7CB01809584238BBB0895A3
:10046000843060F44BB321E030E0B90102C0660F84
:10047000771F8A95E2F7CB0184278BBB08951F92E3
:100480000F920FB60F9211248F939F93EF93FF93C8
:100490008CB1823539F18093D900E091E70091E089
:1004A0009E0F9093E700F0E0ED51FF4F868380911F
:1004B000E700803110F01092E7009091E700809102
:1004C000E6009817E9F0E091E700F0E0ED51FF4F0A
:1004D0001682FF91EF919F918F910F900FBE0F9019
:1004E0001F9018959091D9009034A9F698E088E172
:1004F0000FB6F894A89581BD0FBE91BDA895FFCF0A
:100500008091E70081110BC08FE08093E70080911C
:10051000E8008F3F09F08F5F8093E800D4CF80918F
:10052000E70081508093E700F2CF1F920F920FB641
:100530000F9211242F933F934F935F936F937F9369
:100540008F939F93AF93BF93EF93FF938091D800C6
:100550008F5F8530E0F11092D8008091D7008F5FD7
:100560008093D7008091D6008823C1F08091E40069
:100570008F3F09F08F5F8093E400FF91EF91BF916F
:10058000AF919F918F917F916F915F914F913F912B
:100590002F910F900FBE0F901F90189581E08093C0
:1005A000D60078948091D70080FD19C081FD12C0DB
:1005B00082FD1BC083FD1CC084FD1DC085FD12C0D3
:1005C00086FD1CC087FF08C00E94DE0005C0809326
:1005D000D800D3CF0E94D8001092D600CECF0E9470
:1005E000B700FACF0E94DC00F7CF0E94D900F4CF09
:1005F0000E94DA00F1CF0E94DB00EECF0E94DD0006
:10060000EBCF0E941F010E9449008CE790E09F936E
:100610008F9385E890E09F938F9381E990E09F937B
:100620008F9384EC90E09F938F930E9437050E94F4
:10063000710178948DB79EB708960FB6F8949EBF57
:100640000FBE8DBF0E9452010E945E00FBCF50582A
:10065000BB27AA270E943F030C9490040E948204A7
:1006600038F00E94890420F039F49F3F19F426F4F1
:100670000C947F040EF4E095E7FB0C947904E92FC9
:100680000E94A10458F3BA176207730784079507FD
:1006900020F079F4A6F50C94C3040EF4E0950B2E2B
:1006A000BA2FA02D0B01B90190010C01CA01A001C4
:1006B0001124FF27591B99F0593F50F4503E68F11F
:1006C0001A16F040A22F232F342F4427585FF3CF60
:1006D000469537952795A795F0405395C9F77EF431
:1006E0001F16BA0B620B730B840BBAF09150A1F07A
:1006F000FF0FBB1F661F771F881FC2F70EC0BA0F00
:10070000621F731F841F48F4879577956795B79587
:10071000F7959E3F08F0B0CF9395880F08F0992782
:10072000EE0F9795879508950E94A8030C94900466
:100730000E94890458F00E94820440F029F45F3F2F
:1007400029F00C94790451110C94C4040C947F0486
:100750000E94A10468F39923B1F3552391F3951BEB
:10076000550BBB27AA2762177307840738F09F5FD2
:100770005F4F220F331F441FAA1FA9F335D00E2E3F
:100780003AF0E0E832D091505040E695001CCAF7AC
:100790002BD0FE2F29D0660F771F881FBB1F26176F
:1007A00037074807AB07B0E809F0BB0B802DBF0146
:1007B000FF2793585F4F3AF09E3F510578F00C9415
:1007C00079040C94C4045F3FE4F3983ED4F3869517
:1007D00077956795B795F7959F5FC9F7880F911D36
:1007E0009695879597F90895E1E0660F771F881F22
:1007F000BB1F621773078407BA0720F0621B730BD5
:10080000840BBA0BEE1F88F7E09508950E940D0443
:100810006894B1110C94C40408950E94A90488F04E
:100820009F5798F0B92F9927B751B0F0E1F0660FB4
:10083000771F881F991F1AF0BA95C9F714C0B130F5
:1008400091F00E94C304B1E008950C94C304672F93
:10085000782F8827B85F39F0B93FCCF38695779524
:100860006795B395D9F73EF490958095709561950D
:100870007F4F8F4F9F4F0895E89409C097FB3EF438
:1008800090958095709561957F4F8F4F9F4F9923DD
:10089000A9F0F92F96E9BB279395F695879577955B
:1008A0006795B795F111F8CFFAF4BB0F11F460FF1B
:1008B0001BC06F5F7F4F8F4F9F4F16C0882311F073
:1008C00096E911C0772321F09EE8872F762F05C087
:1008D000662371F096E8862F70E060E02AF09A9522
:1008E000660F771F881FDAF7880F9695879597F917
:1008F000089597F99F6780E870E060E008959FEFA2
:1009000080EC089500240A941616170618060906A6
:10091000089500240A941216130614060506089575
:10092000092E0394000C11F4882352F0BB0F40F4FD
:10093000BF2B11F460FF04C06F5F7F4F8F4F9F4F3D
:10094000089557FD9058440F551F59F05F3F71F0BF
:100950004795880F97FB991F61F09F3F79F0879526
:100960000895121613061406551FF2CF4695F1DFAF
:1009700008C0161617061806991FF1CF869571053F
:10098000610508940895E894BB2766277727CB0173
:1009900097F908950E94DD040C9490040E9482044B
:1009A00038F00E94890420F0952311F00C9479040A
:1009B0000C947F0411240C94C4040E94A10470F3CD
:1009C000959FC1F3950F50E0551F629FF001729FF4
:1009D000BB27F00DB11D639FAA27F00DB11DAA1F03
:1009E000649F6627B00DA11D661F829F2227B00D50
:1009F000A11D621F739FB00DA11D621F839FA00DDB
:100A0000611D221F749F3327A00D611D231F849F2A
:100A1000600D211D822F762F6A2F11249F57504081
:100A20009AF0F1F088234AF0EE0FFF1FBB1F661FFC
:100A3000771F881F91505040A9F79E3F510580F0C5
:100A40000C9479040C94C4045F3FE4F3983ED4F30F
:100A5000869577956795B795F795E7959F5FC1F769
:100A6000FE2B880F911D9695879597F90895A0E024
:100A7000B0E0EDE3F5E00C94DB07AE014B5F5F4FB8
:100A8000FA0161917191AF018091FB009091FC009E
:100A90000E944D05E2E00C94F707ACE0B0E0E3E51E
:100AA000F5E00C94CB077C016B018A01FC011782F5
:100AB0001682838181FFBDC1CE0101964C01F701F1
:100AC0009381F60193FD859193FF81916F018823B6
:100AD00009F4ABC1853239F493FD859193FF81917F
:100AE0006F01853229F4B70190E00E943507E7CF06
:100AF000512C312C20E02032A0F48B3269F030F4FC
:100B0000803259F0833269F420612CC08D3239F083
:100B1000803339F4216026C02260246023C028601D
:100B200021C027FD27C030ED380F3A3078F426FF7A
:100B300006C0FAE05F9E300D1124532E13C08AE0E8
:100B4000389E300D1124332E20620CC08E3221F4D9
:100B500026FD6BC1206406C08C3611F4206802C0EB
:100B6000883641F4F60193FD859193FF81916F01E1
:100B70008111C1CF982F9F7D9554933028F40C5F3D
:100B80001F4FFFE3F9830DC0833631F0833771F0D7
:100B9000833509F05BC022C0F801808189830E5F34
:100BA0001F4F44244394512C540115C03801F2E0E6
:100BB0006F0E711CF801A080B18026FF03C0652D67
:100BC00070E002C06FEF7FEFC5012C870E942A07FB
:100BD0002C0183012C852F77222E17C03801F2E0DB
:100BE0006F0E711CF801A080B18026FF03C0652D37
:100BF00070E002C06FEF7FEFC5012C870E941F07D6
:100C00002C012C852068222E830123FC1BC0832D00
:100C100090E048165906B0F4B70180E290E00E94D7
:100C200035073A94F4CFF50127FC859127FE819191
:100C30005F01B70190E00E94350731103A94F1E06E
:100C40004F1A51084114510471F7E5C0843611F070
:100C5000893639F5F80127FF07C0608171818281EB
:100C600093810C5F1F4F08C060817181072E000CBB
:100C7000880B990B0E5F1F4F2F76722E97FF09C0BE
:100C800090958095709561957F4F8F4F9F4F20680D
:100C9000722E2AE030E0A4010E946D07A82EA81849
:100CA00044C0853729F42F7EB22E2AE030E025C0DB
:100CB000F22FF97FBF2E8F36C1F018F4883579F006
:100CC000B4C0803719F0883721F0AFC02F2F2061D2
:100CD000B22EB4FE0DC08B2D8460B82E09C024FF47
:100CE0000AC09F2F9660B92E06C028E030E005C0EC
:100CF00020E130E002C020E132E0F801B7FE07C099
:100D000060817181828193810C5F1F4F06C0608179
:100D1000718180E090E00E5F1F4FA4010E946D077B
:100D2000A82EA818FB2DFF777F2E76FE0BC0372D3F
:100D30003E7FA51450F474FE0AC072FC08C0372D23
:100D40003E7E05C0BA2C372D03C0BA2C01C0B52C8D
:100D500034FF0DC0FE01EA0DF11D8081803311F4D6
:100D6000397E09C032FF06C0B394B39404C0832F08
:100D7000867809F0B39433FD13C030FF06C05A2CB7
:100D8000B31418F4530C5B18B32CB31468F4B70104
:100D900080E290E03C870E943507B3943C85F5CF14
:100DA000B31410F43B1801C0312C34FF12C0B7014A
:100DB00080E390E03C870E9435073C8532FF17C0F6
:100DC00031FD03C088E790E002C088E590E0B701FC
:100DD0000CC0832F867859F031FF02C08BE201C02E
:100DE00080E237FD8DE2B70190E00E943507A5143F
:100DF00038F4B70180E390E00E9435075A94F7CFAA
:100E0000AA94F401EA0DF11D8081B70190E00E94DF
:100E10003507A110F5CF332009F451CEB70180E298
:100E200090E00E9435073A94F6CFF70186819781CA
:100E300002C08FEF9FEF2C96E2E10C94E707FC01D4
:100E40000590615070400110D8F7809590958E0FF5
:100E50009F1F0895FC016150704001900110D8F768
:100E6000809590958E0F9F1F08950F931F93CF939A
:100E7000DF93FB01238121FD03C08FEF9FEF28C08B
:100E800022FF16C0468157812481358142175307BE
:100E900044F4A081B1819D012F5F3F4F31832083B6
:100EA0008C93268137812F5F3F4F3783268310C075
:100EB000EB01092F182F0084F185E02D0995892B6E
:100EC000E1F68E819F8101969F838E83812F902FE3
:100ED000DF91CF911F910F910895FA01AA27283031
:100EE00051F1203181F1E8946F936E7F6E5F7F4FF7
:100EF0008F4F9F4FAF4FB1E03ED0B4E03CD0670F73
:100F0000781F891F9A1FA11D680F791F8A1F911DC5
:100F1000A11D6A0F711D811D911DA11D20D009F415
:100F200068943F912AE0269F11243019305D319357
:100F3000DEF6CF010895462F4770405D4193B3E040
:100F40000FD0C9F7F6CF462F4F70405D4A3318F0E7
:100F5000495D31FD4052419302D0A9F7EACFB4E098
:100F6000A6959795879577956795BA95C9F7009750
:100F70006105710508959B01AC010A2E06945795F1
:100F8000479537952795BA95C9F7620F731F841F48
:100F9000951FA01D08952F923F924F925F926F92DE
:100FA0007F928F929F92AF92BF92CF92DF92EF92F9
:100FB000FF920F931F93CF93DF93CDB7DEB7CA1B7A
:100FC000DB0B0FB6F894DEBF0FBECDBF09942A88A5
:100FD000398848885F846E847D848C849B84AA844D
:100FE000B984C884DF80EE80FD800C811B81AA81DA
:100FF000B981CE0FD11D0FB6F894DEBF0FBECDBFA5
:08100000ED010895F894FFCF03
:1010080000000001000000000000EC0000000000EB
:101018000002000000000E010000000030393A33E1
:10102800303A313300417072203132203230313859
:10103800000A0D50726F6772616D203F3F00256C8A
:1010480075202041444348203D20307825303278AF
:101058002020766363203D2025642E2530326420CD
:1010680020200D0025732025732025730A0D00000C
:00000001FF
